:040000006F20F04736
:1000040000000000000000009C6A0000A06A0000DC
:10001400000000004001000000000000000000009B
:10002400400100007C2C00000000000000000000E3
:100034007C2C0000000000007C2C0000000000006C
:100044007C2C00007C2C00007C2C00007C2C00000C
:100054007C2C00007C2C00007C2C00007C2C0000FC
:100064007C2C00007C2C00007C2C00007C2C0000EC
:100074007C2C00007C2C00007C2C00007C2C0000DC
:100084007C2C00007C2C00007C2C00007C2C0000CC
:10009400525200007C2C00007C2C00007C2C0000C0
:1000A4007C2C00007C2C00007C2C00007C2C0000AC
:1000B4003C6200007C2C00007C2C00007C2C0000A6
:1000C4007C2C00007C2C00007C2C00007C2C00008C
:1000D4007C2C00007C2C00007C2C00007C2C00007C
:1000E4007C2C0000BC410000465200002A6D000038
:1000F4007C2C00007C2C00007C2C0000B06A0000EA
:10010400F42B00007C2C00007C2C00007C2C0000D4
:100114007C2C00007C2C000000000000000000008B
:1001240000000000000000000000000000000000CB
:0C013400000000000000000000000000BF
:100140009305000273A04580824573901534924058
:100150002242B2424243D2436244F2440255925593
:100160002256B2564257D2576258F258064996491B
:10017000264AB64A464BD64B664CF64C065D965D13
:10018000265EB65E465FD65F096173002030371584
:1001900001404111C1451305058006C6EF30600FCF
:1001A000938741929C430145EF80804FEF60C034BC
:1001B000EF60604EEF80C075EF70500CEF60B003E1
:1001C000EF700049E5B723AC05FE1C4181E70CC187
:1001D0008280BA8703A787FF6DFF23ACB7FE8280BA
:1001E000411126C24AC0B744024006C622C403A930
:1001F000C42023A604200F10000009E923A624210F
:10020000B240224492440249410182802A8421055D
:10021000BD654205C18D4181EF20004001CDFD57F4
:1002200023200500231285002303F50023A62421A3
:100230002105F9B723A624210145D9B701114AC8E0
:100240004EC6B747024006CE22CC26CA83A9C72095
:100250002A8923A607200F10000097770020938794
:10026000E74080438144014619E499E8A1654A8545
:10027000EFC0004B15A08347E4FF639B270395CC99
:10028000A685177500201305653EEFB0105979DC7F
:10029000A1654A85EFC06000F2406244B747024062
:1002A00023A6372126854249D244B249056182807E
:1002B00091E02286032484FF45BFA284E5BF97779F
:1002C00000209387A73F9C4399E33E85828003D714
:1002D00027006316B70003C70700E308A7FEDC4743
:1002E000E5B7B747024003A7C72023A607200F1092
:1002F000000001C599C1814711E6B747024023A616
:10030000E7208280B386F50003C80600B306F50037
:10031000850723800601E317F6FEC5B7374702407D
:100320008327C720232607200F10000019C191C181
:1003300011E6374702402326F7208280910503A764
:10034000C5FF11057D16232EE5FEDDB737470240B8
:100350008327C720232607200F10000001C533077D
:10036000C50011E6374702402326F72082800505A5
:10037000A30FB5FEE31DE5FEF5B7B747024083A620
:10038000C72023A607200F10000081473307F50080
:100390000307070019E7374702402326D7203E8589
:1003A00082808507E5B7011126CA4AC8B7470240CF
:1003B00006CE22CC83A4C7202A892E8623A6072016
:1003C0000F100000131506019305F004418132C699
:1003D000EF2080242A8401C53246CA851937228538
:1003E000F2406244B747024023A697204249D244D4
:1003F00005618280B747024003A7C72023A60720D4
:100400000F10000001C599C1814711EAB7470240AA
:1004100023A6E720054582808507E309F6FE330819
:10042000F500B386F5000348080083C60600E3051F
:10043000D8FEB747024023A6E72001458280B74790
:10044000024003A7C72023A607200F100000930730
:10045000F6FFBE952A966317C500B747024023A64C
:10046000E7208280FD1583C715000505A30FF5FE63
:10047000DDB7374702408327C720232607200F1008
:10048000000001C53307C50019E63747024023269F
:10049000F7200145828005058346F5FFE397B6FE08
:1004A000E31BE5FE374702402326F72005458280FF
:1004B0007971977700209387672022D4804306D6EE
:1004C00026D24AD04ECE52CC56CA5AC85EC669C051
:1004D000B7C4C901014B977900209389A91D938462
:1004E000F437177A0020130AAA1D977A0020938AFE
:1004F0002A1817790020130929218357240095E32E
:100500005C44631D0B00177700202329F71A832B07
:10051000C4002285EF20201F5E84A9A82326FB00AB
:10052000FDB783A7090082971C443307F540637623
:10053000F500032749001D8F2A9763E0E4089777A9
:10054000002023AF07128355240003450400EFB0B9
:10055000D0545C405844A1CB0C4403264900AE97CC
:10056000BE8663E4B70063E4C700B386C74014C423
:10057000228B3A8459F0977700209387670F9C4B22
:1005800005476372F706FD1717770020232AF70E39
:10059000B250225492540259F249624AD24A424B12
:1005A000B24B4561828063170B009777002023A729
:1005B000E710B1BF2326EB0099BF03278A0209CFBA
:1005C00063EFA7003385A74083A70A016376F50090
:1005D0009777002023A6A70A228B404461BF0327F8
:1005E0004900BA97C5B79777002023AB07084DB7E6
:1005F00001114EC6B747024006CE22CC26CA4AC8D1
:1006000052C483A9C72023A607200F100000177922
:1006100000201309690F9777002083C7A70F0325D0
:100620004900ADC39777002083D78731A1CF977753
:1006300000209387A72503A4070B6305A4049777DD
:1006400000209387E702984B3E8A6307A7109774B0
:100650000020938424069C408297636BA40E9C40E8
:10066000098C829703270A016373E4002287B3078A
:10067000A7003E858326490063E4E70063E4D700D2
:100680003385D740B747024023A637218327490047
:10069000639FA70217740020130484FD18489777FE
:1006A0000020938727019C43631AA70A8297832619
:1006B0004900B74736FE938707C8B6973387A70028
:1006C0003A856364F7006364D7003305D740177435
:1006D0000020130424315C5081CF9777002093874A
:1006E000273894433707CDFF7D179C46F98F9CC66A
:1006F00019E103254900854717770020232AF72EA3
:10070000977700209387C7FB9C57829711ED5C5029
:1007100099CB5C4489CBEF303238EF30621D97774C
:10072000002023A7072C69335C5099CB97770020D2
:10073000938707339843B70633001C47D58F1CC7F0
:10074000F2406244D2444249B249224A0561828061
:10075000832749003E9421B722852DB782971448FC
:1007600003274900B387A6003E8563E4D700E3E092
:10077000E7F63385E740A1BF23A6A19A01C58547C7
:100780002388F19A82809387C19A9C4381CF41113B
:1007900006C6829783C7019B99E323A6019AB240BC
:1007A0004101828083C7019B81E723A6019A828051
:1007B0008280411126C206C622C49777002083C7D3
:1007C00067F597740020938464ED85EB977700209C
:1007D00083C79721858B177700201307A72091CF18
:1007E0008347770099466396F60C97770020A38D90
:1007F000071EEF103025DC4482979C4491C38297FA
:1008000017740020130444EB1840177600200346A9
:1008100036E69777002083C7A7E593961700BA9628
:1008200083D60600C5C69777002083C767E463E9CF
:10083000C70A97770020238D07E29777002083C7A8
:10084000F71A977400209384E41963970712977737
:100850000020938727E69C43638B0710977700203F
:10086000938787EADC4317770020232BF7E0893151
:10087000977700209387C7E49C57638A070E83C746
:10088000740011476365F70E9777002083C7071B35
:10089000918BF1EF83C7019BF9EB10409776002015
:1008A00083C616DD63C7D70E2244B240924441018D
:1008B00081B3834777001D47E311F7F49777002052
:1008C000A3840712EF1010189C483DB7850793F7D3
:1008D000F70F97760020238DF6D8E3ECC7F2A1B787
:1008E00086073E978355070023100700977700205F
:1008F000239007DC97770020938707DA9C431775CE
:1009000000200345E5D613172500BA979C4382972C
:100910009777002083D7C7D917770020034747D59B
:1009200093C7F7FF7D8D9317170018403E978357A5
:1009300007005D8D2310A7009777002083C747D35A
:1009400091C78507177700202304F7D29C4091C7F1
:1009500082979777002023A307D4177700200347B7
:1009600027D19777002083C7B7D0E374F7ECB24064
:10097000224492444101828083C7740093F7F70FA9
:10098000E39707EC97770020A3820706EF30223623
:100990007DBD1397170032970357070069FB850742
:1009A00011B7374702408326C720F177FD17F58F2F
:1009B0002326F7200100010097770020938747CB7B
:1009C000C84F832787262326D7206A0593C7F7FFBA
:1009D00099835D8D82809777002083C797C999CFCF
:1009E0009777002083C707D381CF9777002093871D
:1009F000A7D203A307006307030002830545828093
:100A0000094582801305F00F8280938741A39C43A0
:100A100017770020034757E72A86050781463E855A
:100A200083D707006388C700850693076500E3E85E
:100A3000E6FE014582809387C1A2984319E30146EF
:100A400015A81C4703D8A700636B0501835847000E
:100A5000B38608016355D500814663941601184397
:100A6000F1BF3E86C10703D3A7FF6317A30099C157
:100A700023900501328582808506C206C182F1BFBE
:100A800097770020938747DA98431776002003462C
:100A9000A6DF81476315F600814636858280BA86D7
:100AA0001307C703835567FCE389A5FE850793F702
:100AB000F70FCDB70327851163020712411122C436
:100AC00006C68347C5008345E5042A8493F7C70F0C
:100AD0002306F500834697000356C7001395860149
:100AE000618563F2C508635B05060345870093F6DD
:100AF000F607A304D700054693E627006314C50054
:100B000093E617002306D4005C4389075CC3A30A5D
:100B1000B400032504112E864C430905EFF06FFC49
:100B20008327841103465401D44303D7C700B296E8
:100B3000118FD4C32396E7008947A30DF400034720
:100B400064039777002083C7C7B86378F7048347A7
:100B5000C40093E707012306F40081A093E7170080
:100B60002306F4006DB79376F60F635D0502034527
:100B70008700854513E627006314B50013E61700C8
:100B80002306C400A30AD400A30407008547A30DCD
:100B9000F400832784119C43DDF3B24022440145D5
:100BA0004101828093E717002306F400A30AD400D2
:100BB000A3040700032504114C430905EFF06FF26D
:100BC0008327841103465401D44303D7C700B29648
:100BD000118FD4C32396E7008D4755BF054582800A
:100BE00097770020938747DD9C43411122C406C6B6
:100BF000858B2A84D5EB4165130525F5EFD0017966
:100C000045C58347A5002315F50083270412BDE7DA
:100C10002320A4122322A41285472311F4042320A5
:100C200005008347640154412316F5000347D400AF
:100C30002304E5000547A304E50017770020130708
:100C400067DA58531385170215811C437D151375F8
:100C5000F50F9CC25C43DCC21C479CC65C47DCC6EB
:100C60001C4B9CCA5C4BDCCA1C4F9CCE5C4FDCCE40
:100C700019CD9386060213070702C1BF83274412CA
:100C800088C3835724042322A412850779B7977752
:100C9000002083D727C0850717770020231CF7BEC5
:100CA000B2402244410182808347C40023090400EA
:100CB000054593C747002306F400DDB78347850148
:100CC00093F7E70FC5EF83479501CDEB0346250169
:100CD0008346C50009CA834565031777002003478B
:100CE000579F63E7E50013F7060151CB014709C69B
:100CF000C18A0357251E81C68356651E369741C398
:100D00001307C71217750020035585A0B335A70236
:100D100037460F00411113060624814622C426C21D
:100D200006C67D543305A702EF80106A977700202E
:100D300083C7779AB384A70097770020938707B576
:100D400003A7C7098327070963F387003E84184375
:100D500075FB977700209387E7959C43829781479F
:100D60006364A400B307A440B2402244B3B7970021
:100D700093C7170092443E854101828081473E859A
:100D8000828097770020938767C898437C53FDFF44
:100D90008280011197770020938747AF22CC03A46C
:100DA000470A26CA9777002083D78796835464081A
:100DB000032504094AC8B384F402B7470F00138718
:100DC000F7239387072406CE4EC652C456C217791E
:100DD000002013096993BA94B3D4F402636E9502A8
:100DE000977900209389098D83A70900B304954062
:100DF000829763E7A402898C63C8040283570404C2
:100E0000A30F040085072310F40483470414639F91
:100E100007102285352729AA832749003E95C9B79F
:100E200083274900BE94C1BF83A709008297032787
:100E300084086367E50A198D8357E4031777002058
:100E40000357078D8E07B387E70213070032938796
:100E50000719B3D7E70263EAA708374A0F00930AD6
:100E6000FA23130A0A248357040485072310F40481
:100E70008347041499E32285E1252285EFC021569A
:100E8000631A0526832604098327C408032749001B
:100E9000B6973E8563E4D70063E4E7003385E74017
:100EA0008347F401835464082328A4088507A30F0B
:100EB000F4009777002083D7A785B384F402D694F3
:100EC000B3D44403636C9504B304954083A709002D
:100ED000829763E9A4043385A440E34605F839BF4B
:100EE00083274900998F3E9581BFA1452285EFC098
:100EF0008146A305A402976700209387677C03A31C
:100F000047036309031E6244F240D2444249B24996
:100F1000224A924A8945154505610283B3049740E8
:100F2000AA946DB783274900BE9475B72285452DD5
:100F30002285EFC0C14A631F051A835764081765ED
:100F400000200355E57CB7460F00B387A702138640
:100F5000F6239386062403270409230B0402032A9D
:100F60004900B297B3D7D702636FF718B307F740BA
:100F70008326C4082324F408814AB387E600BE848C
:100F800063E4D70063E44701B38447418357040215
:100F900023289408B1CB83560404035744023746F0
:100FA0000F002312D4023387E640B387E7020357CA
:100FB00024021306062481468145BA97C207C183DD
:100FC0003385A7022311F402EF80104011CD26953E
:100FD000B3349500AE94AA8763949A006364450184
:100FE000B30745412328F40883A709008297AA8400
:100FF00083A709008297E30D95FE83A70900832448
:101000008408829763E6A4103385A4406303051225
:10101000835764089769002083D9896FB7440F000C
:10102000B38737031387F42393840424BA97B3D781
:101030009702176700200347176ABA9763EBA70E5A
:10104000B3359502035924024E8681463305950235
:10105000EF809037330AA9003305390337460F0074
:101060001306062481468145EF80103605C1B3374B
:1010700095024E868146B385B4023385A402BE959F
:10108000EF8090343305A9402311A4023545EF20A9
:10109000B2589777002023AD87888346B400054770
:1010A0009767002083C707676398E606130700FD6C
:1010B0002307E40017770020130747910843B5C7BB
:1010C000EFF08FEB977600209386469490429547F9
:1010D00017770020A30BF7905846F977FD17F98F83
:1010E0005CC60F1000009C428966060A94C723A2C2
:1010F0004707D8C7F2406244D2444249B249224A23
:10110000924A05618280B3064701B387F6408DB5E8
:1011100083274900BE94CDBD130710FC2307E400CC
:10112000177700201307078A51BF8145EFB0C077BA
:1011300051BF9767002023AD077E9767002083C7C4
:10114000675D99CF97770020938787878843EFB0B3
:101150009011B7E700E03707000223A2E72059BF4C
:101160008347940285456244F240D2444249B249E1
:10117000224A924AB395F500C205C1810145056135
:101180006FB0A011011122CC4AC84EC606CE26CAA5
:1011900052C456C25AC00347B50085472A842E89D7
:1011A00083290509631DF71E83570508035BC503E3
:1011B000976A002083DACA55176A0020130ACA54B6
:1011C00063F7671B834605016393E61A03278511BE
:1011D000631F07180327450A631B07188346F5009A
:1011E0001D476396E6180355A503330BFB40930791
:1011F000204E330565038324440937460F00130648
:10120000062481463305F5029767002083C7A74C63
:10121000B3549502B3B5AA02BE94C204C18023138D
:1012200094083385AA02EF80301AAA9933B5A90031
:101230002E954E8783274A0019E163E4F90033872E
:10124000F940B3845403B7460F009387F62393867F
:1012500006242320E900BE94B3D4D40293171B00C4
:10126000A6976360F7101D8F2320E900976900207F
:101270009389494483A7090083240900829763E383
:10128000A4123385A4406352050C83A709008297FA
:1012900003270900636FE510198D8357E40317676F
:1012A00000200357E7468E07B387E7021307003293
:1012B00093870719B3D7E70263E5A710374A0F00F2
:1012C000130BFA23976A0020938A0A44130A0A240C
:1012D0008357040485072310F4048347041499E317
:1012E0002285B92C2285EFC0810F65E98326040988
:1012F0008327C40803A74A00B6973E8563E4D70056
:1013000063E4E7003385E7408347F40183546408CE
:101310002328A4088507A30FF4009767002083D72C
:10132000273FB384F402DA94B3D444036366950C84
:10133000B304954083A7090023209900829763E1B5
:10134000A40C3385A440E34505F89767002083C7C4
:10135000973863E5A7089767002023AB875C0145B2
:10136000B5A883264A00B387F6403E97F5BD83575C
:10137000640837470F00B38457039307F723A697F2
:1013800093040724B3D4970263E79900B384994088
:1013900023209900E1BD83274A00BE99C5BF23A041
:1013A0003501E9B59767002093870736DC43BE9483
:1013B000C9BD9767002093872735DC43998F3E95F9
:1013C000E9BDA1452285EFB01179A305A402976775
:1013D00000209387E72EDC5B81EF7D55F24062446D
:1013E000D2444249B249224A924A024B0561828064
:1013F000894515458297D5B7B3049740AA941DBF78
:1014000083A74A00BE9435BF31CD01116C0022CCB8
:1014100006CE2A84853B29C5FD576308F5029766E9
:1014200000209386E629945632479767002083C7A9
:10143000972A91C28583636EF700B307F7403EC6D3
:10144000B24503459402EFA0707CF240624405610E
:101450008280976600209386262BD4423697F1BF70
:101460000D3AE5B78280797197670020938707422C
:1014700026D283A4C70906D622D44AD04ECE094725
:10148000A5C09766002083C6565695470D476389C9
:10149000F604976700209387E754DC472A8989CBB5
:1014A000EF20925FEF20C2449767002023A20754E9
:1014B000FD596C002685F93105ED1705000013056F
:1014C000858DEFF06FABA14717670020230EF75013
:1014D00097670020938787539C430947F8D30D47AC
:1014E000B250225492540259F2493A8545618280A1
:1014F000637435013244AA898440C5FCFD57130743
:10150000F00FE38FF9FC914763F487029307B4FF70
:101510002320F900176700202322F7420147E9F34F
:10152000976700209387471EDC432320F9004DBFB7
:10153000976700209387471DDC43ED17A297C9BF2B
:10154000797126D206D622D44AD04ECE52CC56CA73
:101550005AC85EC68347550303447513AA843E9454
:101560001374F40F9307400263F687001304B4FD6D
:101570001374F40F03AA841383AAC413A38B8412D5
:1015800022865285D685EF80A05E058905E503CBCE
:10159000D41201498149337B6403930B50024A867C
:1015A0005285D685EF80C05C058915C563916903B6
:1015B0001374F90F238B8412B2502254925402599F
:1015C000F249624AD24A424BB24B45618280850958
:1015D000E20993D989410509E31379FDE1BF832726
:1015E000850903560504797193D60701BD8EC2069D
:1015F000C182358E1357764093575640898B058BA1
:101600005D8F93573640918B5D8F93571640A18B1A
:101610005D8F93171600C18B5D8F9317360093F77C
:1016200007025D8F931756009355860093F70704C2
:101630001E065D8F1376F60F518F93D7554013D644
:101640003540118A898BD18F13D67540D18F13D62F
:101650001540218AD18F13961500418AD18F139698
:10166000350013760602D18F1396550013760604C3
:101670009E05D18F93F5F50FCD8FA20745465D8F5F
:101680003307C70222D42A8426D252CC56CA032A50
:101690008413832AC4135AC806D636974207418357
:1016A00093577740135557400989858BC98F135538
:1016B00037401189C98F135517402189C98F1315D8
:1016C00017004189C98F1315370013750502C98F9B
:1016D0001315570093558700137505041E07C98F0E
:1016E0001377F70FD98F13D5354013D7554011898C
:1016F000098B498F13D57540498F13D51540218922
:10170000498F139515004189498F1395350013753D
:101710000502498F13955500137505049E05498FE1
:1017200093F5F50F4D8F2207D98FB387C7024AD0A3
:101730004ECE5EC662C4B697C207C18313D7774048
:1017400013D557400989058B498F13D53740118927
:10175000498F13D517402189498F13951700418967
:10176000498F1395370013750502498F139557005C
:1017700093D58700137505049E07498F93F7F70FDC
:10178000D98F13D5354013D755401189098B498F0F
:1017900013D57540498F13D515402189498F13956D
:1017A00015004189498F1395350013750502498F3E
:1017B00013955500137505049E05498F93F5F50F94
:1017C0004D8F2207D98FB387C70213065002528567
:1017D000D685B697BD8E93940601C18033F6C402B8
:1017E000137BF60FEF80C03805891DE98347D412BB
:1017F00001498149B3849702130C5002C1804A8683
:101800005285D685EF80C0360589937BF90F11C5C7
:1018100063863403850993F9F90F0509E31189FFFC
:10182000230B6413B250225492540259F249624A73
:10183000D24A424BB24B224C456182805E8BCDB77F
:101840008327C50803568508797193D60701BD8E95
:10185000C206C182358E1357764093575640898B06
:10186000058B5D8F93573640918B5D8F9357164054
:10187000A18B5D8F93171600C18B5D8F9317360078
:1018800093F707025D8F931756009355860093F7E1
:1018900007041E065D8F1376F60F518F93D75540C0
:1018A00013D63540118A898BD18F13D67540D18FCD
:1018B00013D61540218AD18F13961500418AD18FF6
:1018C0001396350013760602D18F139655001376C2
:1018D00006049E05D18F93F5F50FCD8FA2074546DF
:1018E0005D8F3307C70222D42A8426D252CC56CA2F
:1018F000032A040A832A440A5AC806D6369742079E
:10190000418393577740135557400989858BC98F79
:10191000135537401189C98F135517402189C98F35
:10192000131517004189C98F131537001375050268
:10193000C98F1315570093558700137505041E07AB
:10194000C98F1377F70FD98F13D5354013D755406B
:101950001189098B498F13D57540498F13D51540CF
:101960002189498F139515004189498F13953500B9
:1019700013750502498F13955500137505049E05CF
:10198000498F93F5F50F4D8F2207D98FB387C70283
:101990004AD04ECE5EC662C4B697C207C18313D783
:1019A000774013D557400989058B498F13D53740A8
:1019B0001189498F13D517402189498F1395170035
:1019C0004189498F1395370013750502498F139587
:1019D000570093D58700137505049E07498F93F729
:1019E000F70FD98F13D5354013D755401189098B7F
:1019F000498F13D57540498F13D515402189498FDB
:101A0000139515004189498F13953500137505020B
:101A1000498F13955500137505049E05498F93F55D
:101A2000F50F4D8F2207D98FB387C70213065002D7
:101A30005285D685B697BD8E93940601C18033F644
:101A4000C402137BF60FEF80A01205891DE98347BE
:101A5000140801498149B3849702130C5002C180D4
:101A60004A865285D685EF80A0100589937BF90FB1
:101A700011C563863403850993F9F90F0509E3114C
:101A800089FF230F6407B250225492540259F2493D
:101A9000624AD24A424BB24B224C456182805E8BF5
:101AA000CDB78327450903568508797193D6070179
:101AB000BD8EC206C182358E13577640935756406D
:101AC000898B058B5D8F93573640918B5D8F935734
:101AD0001640A18B5D8F93171600C18B5D8F9317F6
:101AE000360093F707025D8F9317560093558600D3
:101AF00093F707041E065D8F1376F60F518F93D769
:101B0000554013D63540118A898BD18F13D6754035
:101B1000D18F13D61540218AD18F13961500418A93
:101B2000D18F1396350013760602D18F1396550088
:101B3000137606049E05D18F93F5F50FCD8FA2077E
:101B400045465D8F3307C70222D42A8426D252CC61
:101B500056CA032A040B832A440B5AC806D6369762
:101B60004207418393577740135557400989858B26
:101B7000C98F135537401189C98F135517402189D3
:101B8000C98F131517004189C98F131537001375B5
:101B90000502C98F13155700935587001375050467
:101BA0001E07C98F1377F70FD98F13D5354013D779
:101BB00055401189098B498F13D57540498F13D52D
:101BC00015402189498F139515004189498F139537
:101BD000350013750502498F1395550013750504DB
:101BE0009E05498F93F5F50F4D8F2207D98FB38747
:101BF000C7024AD04ECE5EC662C4B697C207C18342
:101C000013D7774013D557400989058B498F13D5D2
:101C100037401189498F13D517402189498F139572
:101C200017004189498F1395370013750502498FB5
:101C30001395570093D58700137505049E07498FA8
:101C400093F7F70FD98F13D5354013D75540118926
:101C5000098B498F13D57540498F13D515402189BC
:101C6000498F139515004189498F139535001375D8
:101C70000502498F13955500137505049E05498F7C
:101C800093F5F50F4D8F2207D98FB387C70213063F
:101C900050025285D685B697BD8E93940601C180B9
:101CA00033F6C402137BF60FEF70906C05891DE9C3
:101CB0008347F40801498149B3849702130C500209
:101CC000C1804A865285D685EF70906A0589937BDC
:101CD000F90F11C563863403850993F9F90F0509D6
:101CE000E31189FF230F6407B25022549254025922
:101CF000F249624AD24A424BB24B224C4561828041
:101D00005E8BCDB7797122D406D683C735002E8479
:101D100023160100A307F10083C74500100802C085
:101D20002307F10083C755008A8502C2A306F1008C
:101D300002C402C802CA02CC02CE812A0347F101C2
:101D40008347040001456310F7020347E10183471D
:101D5000140001456319F7000345D10183472400AE
:101D60001D8D13351500B25022544561828001113A
:101D700097670020938787B122CC03A4C70C26CA9B
:101D80004AC84EC606CEAA8413092500854915C047
:101D900083C7140003473400858B6304F700405C5D
:101DA000FDB71946930544004A85EFE0AFE4E31818
:101DB00035FF2285F2406244D2444249B24905616E
:101DC0008280411197670020938747AC22C403A407
:101DD000C70C26C24AC006C693042500054901E87F
:101DE0002285B24022449244024941018280A68564
:101DF0001305A402013FE30525FF405CCDB7411167
:101E000097670020938787A822C403A4C70C26C223
:101E10004AC006C693042500054901E82285B24060
:101E200022449244024941018280A6851305A401FF
:101E3000D13DE30525FF405CCDB701119767002038
:101E40009387C7A422CC03A4470C26CA06CE2AC473
:101E50002EC6854419E40145F2406244D24405612E
:101E600082808347910003471400858B6304F70049
:101E70000044CDB719469305A10013052400EFE0F7
:101E80006FD7E31795FE0545C1BF9766002093867F
:101E900066B49C421307001098C323A007000347B1
:101EA0001500034825002207420842970348050011
:101EB0004297034835006208429798D70347550078
:101EC00003486500220742084297034845004297AD
:101ED0000348750062084297D8D703479500034826
:101EE000A50022074208429703488500429703480D
:101EF000B5006208429798DB0347D5000348E50028
:101F00002207420842970348C5000345F50042975F
:101F100062052A97D8DB03C7150003C525002207F1
:101F200042052A9703C505002A9703C535006205B7
:101F30002A9798CF03C7550003C5650022074205BD
:101F40002A9703C545002A9703C5750062052A979D
:101F5000D8CF03C7950003C5A500220742052A97DD
:101F600003C585002A9703C5B50062052A9798D353
:101F700003C7D50003C5E500220742052A9703C51C
:101F8000C50083C5F5002A97E2052E97D8D3D8431C
:101F9000759BD8C3D84313671700D8C398431367FA
:101FA000170098C398425C43858BD9E31C4F0145C9
:101FB0002300F6009C429C4FA183A300F6009C42A4
:101FC0009C4FC1832301F6009C429C4FE183A301F7
:101FD000F6009C42D84F2302E600D84F2183A3028B
:101FE000E600D84F41832303E600D84F6183A30363
:101FF000E60098532304E60098532183A304E600E7
:10200000985341832305E60098536183A305E600B6
:10201000D8532306E600D8532183A306E600D853FD
:1020200041832307E600DC53E183A307F6008280A7
:1020300001008DBF976700209387479D9843160541
:10204000136505083C4B93E707083CCB97670020D6
:10205000938747989C4303A7450E88C398CB03A753
:10206000850E0145D8CB03A7C50B98CF03A7050C58
:10207000D8CF03A7450C98D303A7850CD8D303A7C3
:10208000C50C98D703A7050DD8D703A7450D98DB36
:1020900003A7850DD8DB03A7C50D98C703A7050EB9
:1020A000D8C798431367070498C3828097670020B6
:1020B0009387C79598431605136505083C4B93E72E
:1020C00007083CCB976700209387C7909C4303A7E2
:1020D000C50E88C398CB03A7050F0145D8CB03A72E
:1020E000C50B98CF03A7050CD8CF03A7450C98D3F1
:1020F00003A7850CD8D303A7C50C98D703A7050D54
:10210000D8D703A7450D98DB03A7850DD8DB03A718
:10211000C50D98C703A7050ED8C7984313670704D2
:1021200098C3930700F8176700202300F78C82807C
:10213000976600209386468A9842411126C21C5F0A
:1021400006C622C49983858BB684CDC39307000647
:102150001CDF9767002083C7E78893F7070417649D
:102160000020130424889DC3975700209387875429
:102170009C4382979767002023A4A7888347040085
:1021800093F7F70B17670020230EF78483470400AB
:1021900093F707029DC383470400A16693F7F70DE9
:1021A000176700202300F7841767002013070786AE
:1021B0005C481843860714C77CD78347440093F7CD
:1021C00007048DE7854717670020A30FF7809767FF
:1021D00000209387A7839C43096798C7130700FCD7
:1021E000976600202382E6801848F8D398401C5F49
:1021F0009183858B81CBC1471CDF85479756002093
:102200002384F67E1C5F9D83858B89CB9307000812
:102210001CDF8547175700202308F77C97570020BD
:102220009387477B9C43D8430583058B19C7D843C5
:10223000759BD8C3D843799BD8C3B24022449244FB
:1022400041018280975700209387477C944397579A
:1022500000209387277903C70700058B09EB03C785
:102260001700058B09E7F8527DF783C7570097578A
:102270000020A38B07768280175800201308C875AA
:10228000032708001C5F9583858BBDEB09C61C5B8B
:10229000BD832300F60085CA83270800985B4607A4
:1022A000935767016356070093E707C0C207C183CE
:1022B00003970600C207C18709C7BA970947B3C782
:1022C000E7022390F60095C18347150099CF3E950C
:1022D000834795000547194593F6F7066393E60291
:1022E000E207E187394563CE0700832708000145EF
:1022F0009C5FED838D8B17570020A30AF76E8280B9
:1023000005458280411122C406C6175400201304DB
:10231000E46F18403DE5AE877453FDFE3E85B285FF
:10232000975700202381076CEF10A26E975700206B
:102330009387876A9C43B70680009843558F98C35C
:10234000D857719BD8D797570020A38F0768975706
:102350000020A38907681C40094798C314401757F9
:1023600000201307276883472700858B99E7834759
:102370003700858B99E3FC52FDF7B24022444101BE
:1023800082808D476310F502975700209387C764BA
:102390009C43B70680009843558F98C3D857719BCC
:1023A000D8D76DBF8547E31BF5FA5447F977FD177A
:1023B000F58F5CC70F1000001C40096798C7130712
:1023C00000F8175600202301E66217570020130774
:1023D000A7601043184231830D8B11E71307601972
:1023E000F8D3D4C7A5BF1842094631830D8B6315B6
:1023F000C7001307E043EDB71307E01BD5B75D71C6
:1024000052DC175A0020130A2A5D03270A0086C6E9
:10241000A2C4A6C2CAC04EDE1C43975900209389AD
:102420002964175900201309695E93F7F7E793E7CA
:1024300007081CC383A609003707CEFF7D179C46FB
:10244000130680022A84F98F9CC68327090028007E
:10245000AE8423A8070493051008EFD03FEF35455D
:10246000EF10921B83270A009376F41F3706330080
:1024700023A40700984B370FFCFF4E881367F70320
:1024800098CBF84FCA88130510F8137707E0558FDB
:10249000F8CF9843F576FD16758F98C3175700202F
:1024A000A30407548326090017570020A30C0752E2
:1024B000054798C29843D285B70204001377F7E71F
:1024C00098C398439303802511491377F7E713675F
:1024D000071098C303A709007D1F85491C47930F68
:1024E0008002D18F1CC793079005BCCA01473400F6
:1024F0001353370026938347030013767700B3D72F
:10250000C740858BDDCF9C41832E0800239C0704A8
:102510002390070603AECE02137EDEFF23A6CE0372
:1025200083AE0700137EF70793FE0EF833EECE015D
:1025300023A0C70103AE4702336E5E0023A2C70388
:1025400083AE0800014E23A27E0603DA0706630766
:102550004E0303AE0703038A0600135EFE00620EFD
:10256000135E8E416358CA0103AE0703135EFE007B
:102570002380C60103DE0706137EFE0F03AA4E0664
:1025800063060A0003DA8705E37F49FB03AE4702CF
:10259000337EEE0123A2C70383870600635CF40049
:1025A000034E03003396C9001346F6FF3376C60187
:1025B0002300C3003E8663D3A7002A861315860135
:1025C000618505071377F70F8506E313F7F3B64028
:1025D000264496440649F259625A616182809757AF
:1025E00000209387A74298438567938707777CD31A
:1025F000975700209387C7469C4383A607091396E5
:1026000056006358060083A60709139666006344C4
:1026100006007453FDF28280411122C4B747024084
:1026200006C603A4C72023A607200F10000011C16F
:1026300099E5B747024023A6872001457DA8930767
:102640003500C207C183F19BC207C1831307400352
:102650006369F702175700201307474908431757C4
:1026600000201307274814436392A602175700203F
:1026700013070705585B55DFC207DD8D0545029737
:102680004DBF1757002013072746C9BF03576500E2
:102690002DEB035745006366F706B306F740214666
:1026A000637CD60203280500938687001D8FAA96B7
:1026B000611717560020035606FC2392E60023A05C
:1026C00006012393060014C12312F500130786FFA9
:1026D000975600202391E6FA2313B5009755002062
:1026E00083D565F9B387F540175700202315F7F810
:1026F000B747024023A687202105B240224441016A
:102700008280084195B7B747024003A8C72023A697
:1027100007200F10000001E523A6072182809757AC
:1027200000209387A73C03AE0700975700209387AC
:10273000673B03A307008146F28763F0670C83A819
:102740000700636FF50A63EDA80A138787006366C5
:10275000E50A03D66700216705076317E60003C78C
:1027600081A405072384E1A497550020938545F0B3
:1027700003D6470003D7650023930700329742072B
:102780004183175500202318E5EE638AC7031755C8
:1027900000201305653508416303F50203D5660083
:1027A00019ED83D7460023A0160121073E96210686
:1027B0002392C60097570020239FE7EAB6879843E5
:1027C000630D670297560020938606329442630693
:1027D000D7028356670095E283D647000356470029
:1027E0001843A106B2962392D70098C383D76500F9
:1027F000A107175700202310F7E8B747024029BF69
:10280000BE86C6871DBF975700209387272E9756F1
:1028100000209386262D9C4390422A87B305B5401D
:102820006314F6003A8529A8938687009C43E369E0
:10283000D7FEE377F7FE2E85E3E4D5FEE3F2F5FE5F
:1028400082804111975700209387470426C2A44FE6
:1028500006C622C44AC08547C1CC03A4C40A854722
:1028600041C88347A4001307700A639AE708034727
:10287000540083479400975600209386E6E8D042A0
:10288000B387E70217570020035787E8B387E702AB
:102890001307003293870719B3D7E70203A7440948
:1028A000B6843E973A896364F7006364C7003309CE
:1028B000C740975700209387E7DF9C4323202501DB
:1028C0008297B307A9406374A900D840BA9781E7FB
:1028D0009307F00F31A8034754009306204E3307A7
:1028E000D702E3F7E7FE930780FA2305F400814758
:1028F000B2402244924402493E854101828013073E
:10290000800AE397E7FC975700209387A7DA9C4358
:1029100082972A893545EF102250AD47175700207E
:10292000A305F70C03475400834794001756002073
:10293000130686DD5042B387E7021757002003577E
:1029400027DDB387E7021307003293870719B3D750
:10295000E70203A744093E97BA866364F7006364FD
:10296000C700B306C740E315D9F617950200130553
:1029700065B9EFD07FE097570020938727099C43E4
:102980000947F8D7B1B7397152D4175A0020130A42
:102990006A0583278A0106DE22DC26DA4AD84ED66B
:1029A00056D25AD05ECE62CC66CA6AC86EC613973B
:1029B00007016357072097570020938727EDA04F03
:1029C0000329C40A834799000327C9009207330CDF
:1029D000F70003452C00314705053305E502035791
:1029E0004C003A9542054181EFD08FFFAA8B6303DB
:1029F000051E130DC5002324A50103462C00B14577
:102A0000F97A3306B60223130C008144975900204B
:102A10009389C9FF175B0020130B0BFC975C002008
:102A2000938C0C04930D9005FD1A6A962326CC0016
:102A3000034679009307D00703A509003306F60281
:102A400085671CC5B7073300060630D103260B0087
:102A50000C4293F5F5E70CC20C4293F5F5E793E5CC
:102A600005100CC203A80C0083258800DD8D2324EB
:102A7000B800832509002328B5050CC683556C00D2
:102A80000326CC002E962324CD0003461C0093057C
:102A900050022696A301CD0003450408014697572E
:102AA0000020A38107F4EF10620C03A6090048463A
:102AB000B37555014CC60F10000003A609008965C7
:102AC00003280B000CC6930500F897570020238DB0
:102AD000B7F083250800B1818D89F1E19305601974
:102AE0006CD248C697570020A38007F085459757BA
:102AF0000020A38907EE0CC2EFF0CFF4EF1082297B
:102B000003461A00058A4DCAEA852285EF905229AC
:102B100015ED03465D004DC283556C0003554C0016
:102B2000B29563DBA508834524012848918D89056A
:102B3000AA9503258D00EFD0CFFA23020D0083451F
:102B40005D0003566C002E962313CC0083A509006C
:102B5000310DB0517DFE03462C00850493F4F40F33
:102B6000E3E8C4EC034784005E85A381EB00834760
:102B70000C00A3820B002383CB002382FB00625452
:102B8000F250D2544259B259225A925A025BF24B35
:102B9000624CD24C424DB24D21616F60B11583251C
:102BA00008000948B1818D89639505019305E043CB
:102BB00005BF9305E01B2DB77D562302CD0079B7E5
:102BC00097570020938787E49C43FC5781C785472C
:102BD0002388F19AF2506254D2544259B259225A7F
:102BE000925A025BF24B624CD24C424DB24D216183
:102BF00082800000197106C212C416C61AC81ECA05
:102C000022CC26CE2AD02ED232D436D63AD83EDAAC
:102C100042DC46DECAC0CEC2D2C4D6C6DAC8DECADC
:102C2000E2CCE6CEEAD0EED2F2D4F6D6FAD8FEDA8C
:102C30009385418B8841E700050092402242B242D1
:102C40004243D2436244F244025592552256B25650
:102C50004257D2576258F25806499649264AB64A10
:102C6000464BD64B664CF64C065D965D265EB65ED0
:0C2C7000465FD65F096173002030000051
:102C7C0001A097E1FF1F938121F017D100201301D0
:102C8C00A13717B502001305A5DC97D5FF1F938557
:102C9C00A5361386018963FAC5008322050023A09B
:102CAC00550011059105E3EAC5FE13850189975579
:102CBC0000209385A5E36377B5002320050011055B
:102CCC00E36DB5FEFD42739002BC8D427390428061
:102CDC00930280087390023097D2FFFF93820232E6
:102CEC0093E2320073905230EF50206F97520000F5
:102CFC009382026873901234730020304111B7270D
:102D0C00014006C693870740631EF50085451305F1
:102D1C000020EF007018814513050020B2404101DE
:102D2C006F009017B737014093870780631BF5003E
:102D3C00854513050040EF00301681451305004012
:102D4C00F1BFB240410182805C413707F1E01307CB
:102D5C00F7EF944D7D8F9C41D58FD44DD58FD441B9
:102D6C00A206D58FD98F5CC11C4537F7F1FF13072D
:102D7C00D77FD4457D8F9C49D58F94458606D58FBA
:102D8C00D98F1CC55C55370710FF7D177D8FDC294B
:102D9C00FD1793F7F70FD207D98F5CD582801C45AE
:102DAC0089C593E717001CC58280F99BEDBF1C45B4
:102DBC0093E787001CC5828008450D8105898280B8
:102DCC001C4593E747001CC582800845098105898D
:102DDC0082801C4591C537075000D98F1CC5828055
:102DEC003707B0FF7D17F98FD5BFA54763F7B70439
:102DFC008D47138765FF3307F7020328C5009D47EE
:102E0C00B397E70093C7F7FFB3F70701B396E60054
:102E1C00DD8E54C5994763E3C70495477D16330689
:102E2C00F6025859FD47B397C70093C7F7FFF98FC0
:102E3C003396C5005D8E50D982800D473387E502ED
:102E4C00032805019D47B397E70093C7F7FFB3F736
:102E5C000701B396E600DD8E14C96DBFB14763E27E
:102E6C00C702954765163306F6021859FD47B39706
:102E7C00C70093C7F7FFF98F3396C5005D8E10D945
:102E8C00828095474D163306F6025855FD47B39789
:102E9C00C70093C7F7FFF98FB395C500DD8D4CD5EF
:102EAC0082806845420541818280B7270140938723
:102EBC000740984711C5B7068000558F98C7828088
:102ECC00B70680FFFD16758FD5BF08416D8D333564
:102EDC00A0008280B7F7FF1F83A7077213D70701E3
:102EEC00C207C1831D8DA9473305F5029307B002B4
:102EFC0055053345F5023305A740420541818280D3
:102F0C005C4191C537070004D98F5CC182803707BB
:102F1C0000FC7D17F98FD5BF797122D426D206D645
:102F2C002A8423040100A5441C8463FBF4042304B9
:102F3C000100A54621461C8463FFF60623150100FB
:102F4C002304010095461C8463F1F60E38853C85FC
:102F5C0099460D46B3F7D7020565B25022541305B6
:102F6C0005809254B3D7C7023357D702BA97C2071A
:102F7C00C1837C853C8545611D8D420541858280E0
:102F8C001C4493E787001CC422853D3575FD1C4409
:102F9C0093E747001CC422850D3D75FD78441C84C5
:102FAC0014108607B6972396E7FE1C84850793F7C3
:102FBC00F70F5C8495BFA30401009C846378F60032
:102FCC001C84850793F7F70F5C84B5B798849C84B1
:102FDC000C100607850786072E97AE970357C7FE7A
:102FEC0083D7C7FE63FDE7029C848607AE9783D721
:102FFC00C7FE7C859C84988485078607AE9783D50D
:10300C00C7FE931717001810BA972396B7FE9C8427
:10301C0038850C1085078607AE972396E7FE9C84AF
:10302C00850793F7F70FDC8449BF1C841010388593
:10303C0089078607B29783D7C7FEBA97C207C183A1
:10304C007C851C84850793F7F70F5C84EDBD1C41D0
:10305C0041677917F98F1CC1232005002322050035
:10306C0023240500B7070240232605001387870099
:10307C006316E500D8431367F70001A81387C7014F
:10308C006317E500D8431367070FD8C3B1A813879C
:10309C0007036318E500D8438566938606F0558FC1
:1030AC00EDB7138747046315E500D843BD66C5BF6C
:1030BC00138787056316E500D843B7060F00C5B71D
:1030CC001387C7066316E500D843B706F000C1BFE7
:1030DC00138707086316E500D843B706000FC1B77E
:1030EC0013874709E308E5F882801C4161773D07A7
:1030FC0094517D8F9C45D58F9449D58FD449D58FCC
:10310C00944DD58FD44DD58FD451D58F9455D58F13
:10311C00D98F1CC1DC455CC19C411CC5DC415CC524
:10312C0082801C4189C593E717001CC182804167CE
:10313C007917F98FDDBF5841032805004C45370638
:10314C000140930706403E979346F8FFB1C583258F
:10315C000640F58D2320B640D043F18ED4C31443E2
:10316C00B3E6060114C3184190479346F7FF758EDA
:10317C0090C7D047F18ED4C7144541466399C60019
:10318C009447D98E94C7D447558FD8C78280B697A9
:10319C009443558F98C382801C43F58F1CC3828047
:1031AC00B707014093870740DC4B7D8D3335A0007A
:1031BC008280B707014023AAA7408280B70701404D
:1031CC0023AAA74082809C4513F7070113F8F70048
:1031DC0001C7D8413368E8008E2113F7F50F39C3C6
:1031EC0018418146854E3D4F930F80029302800417
:1031FC00214E3396DE00B3F8C50063111603939885
:10320C00260033131F011343F3FF3377E300B31886
:10321C00180133E7E800639FF70550C98506E39A68
:10322C00C6FD18C11307F00F6375B704544121464E
:10323C00854E3D4F930F800293028004414EB3980C
:10324C00CE0033F715016392E8021317260001171D
:10325C003313EF001343F3FFB376D3003317E800B7
:10326C00D98E639DF701232A15010506E319C6FDC6
:10327C0054C18280E39457FA10C94DB7E39757FEB7
:10328C0023281501DDB708456D8D3335A0008280EC
:10329C0048456D8D3335A00082800CC982804CC9A5
:1032AC00828019C20CC982804CC98280B707014048
:1032BC00635A0504DC4F93560501131805013707B3
:1032CC00300013F6F60013580801B376E500635E80
:1032DC0005066399E604930606010D46B316D6005F
:1032EC0093C6F6FFF58F99C9135755011377F73F1E
:1032FC0012073317E800D98F6355050637070140CD
:10330C005CCF828037270240145BDC433707000F09
:10331C00758F55F313D71700F976CE07758FCD83BC
:10332C00D98F51BF1317B500635607008D46B3965E
:10333C00C6007DB7135755011377F73F12073317A4
:10334C00E8001347F7FFF98F79BF6390E602370661
:10335C0001405442370700F17D17F98F758F58C221
:10336C00C1F5370701405CC382801317B500635C5D
:10337C0007008D46B396C60093C6F6FFFD8EB707C1
:10338C00000FD58FF1BF1357550112073317E80003
:10339C001347F7FF7D8FB707000FD98FD1B7B7371A
:1033AC00004088C38280B7370040C8C38280B737DB
:1033BC00004088C78280AD67373700409387A7AA43
:1033CC001CC38280B567373700409387C7CC1CC3BA
:1033DC00371702405C53898BF5DF828023A8A188C4
:1033EC008280938701899843854714216310F702E3
:1033FC001C31639CE7023C21960793E707F837E7FB
:10340C0000E093F7F70F36972300F740054793D763
:10341C0056003317D700544189CE938707048A0787
:10342C00B7E600E0B69798C38280EDF33C2196078F
:10343C00F9B793870706E5B7377700401C4309C5F2
:10344C0093E707101CC3828093F7F7EFE5BF37773C
:10345C0000401C43F19B5D8D08C3B7F700E003A748
:10346C0007D11367470023A8E7D005476391E5020E
:10347C0003A707D15D9B23A8E7D07300501037F743
:10348C0000E0832707D1ED9B2328F7D0828003A788
:10349C0007D11367070223A8E7D003A707D1137737
:1034AC00F7FD1367870023A8E7D07300501003A71C
:1034BC0007D11377F7FD1367870023A8E7D07300B4
:1034CC00501037470240032707801377070445DB6A
:1034DC0003A707D11367070223A8E7D04DB7B71787
:1034EC000240D843B70640FFFD16758FD8C3D843AA
:1034FC005A05598DC8C38280B7160240DC425177F9
:10350C007D17F98F5D8DC8C28280B717024023806A
:10351C0007022380070205476306E500114763068F
:10352C00E50082802380A702828015472380E70272
:10353C008280371702401C535D8D08D3828001C9ED
:10354C00371702401C53A166D58F1CD38280B71647
:10355C0002409C5261777D17F98F9CD2828037177D
:10356C0002405C439146B18B6386D706A1466388C3
:10357C00D706B7177A00938707201CC1371602406D
:10358C005C4297D6FF1F938626A79183BD8BB69777
:10359C0098231C41B3D7E7005CC1584221831D8B93
:1035AC003697182333D7E70018C558422D831D8B47
:1035BC00BA96982297D6FF1F938606DCB3D7E700FE
:1035CC005CC5584239830D8B36971823B3D7E70265
:1035DC001CC98280B757E8019387078079BF5C4389
:1035EC005843C166C983BD8B758F8907C5466393E4
:1035FC00D700C94701EF3747024003270780418BAB
:10360C0015CB37177A001307072029A8B7160240E5
:10361C00D8423706C000718F6319C7003727F400F2
:10362C0013070740B387E70289BFD8429316E70018
:10363C00E3D906FC37173D0013070790E5B799C58A
:10364C00371702405C4B5D8D48CB8280B717024028
:10365C00D84B1345F5FF798DC8CB828099C53717A8
:10366C0002401C4F5D8D08CF8280B7170240984FE7
:10367C001345F5FF798D88CF828099C537170240A5
:10368C005C4F5D8D48CF8280B7170240D84F1345F1
:10369C00F5FF798DC8CF828099C5371702405C47FA
:1036AC005D8D48C78280B7170240D8471345F5FF98
:1036BC00798DC8C782809357550005476399E700F9
:1036CC00B71702409C4333D5A70005898280094770
:1036DC006396E700B71702409C53F5B7B717024043
:1036EC00DC53D5B705458280B737004003D74780F8
:1036FC00136707012392E780828037370040835796
:10370C004780C207C183BD9BC207C1832312F780C8
:10371C008280373600408356868103578681420764
:10372C004183E31AD7FE373600408356C681835750
:10373C00C681C207C183E39AD7FEB735004003D6D2
:10374C00858103D5858142054181E31AC5FE630C51
:10375C00A700B736004003D7C68183D7C681C207FE
:10376C00C183E39AE7FE42055D8D8280011106CE8E
:10377C002AC69D3F3245B7370040F240135705012A
:10378C004205239CE7804181239EA7800561B5B744
:10379C00011106CE2AC6893F3245B7370040F240A8
:1037AC00135705013D8B42052394E78041812396F5
:1037BC00A780056199B7373700408357478093F747
:1037CC000702E5DF8280B737004003D747801345F7
:1037DC00F5FF798D2392A7808280F5B71E213737AC
:1037EC000140130707C0C207C1836304E502370712
:1037FC0000406300E50213070740630CE500371730
:10380C000040930607806306D500130707C06316B4
:10381C00E500BA2193F7F7F8D98FFA2193F7F7CF90
:10382C00C207C183D98F1EA1DE215EB59E211EB5B4
:10383C00B7370140938707C06314F5009C251EB968
:10384C0085475EA982801E31922103D82500C207CC
:10385C00C183F99BC207C1831EB11E3156211A2D9B
:10386C00C207C183420741831377C7F8518F922552
:10387C00F59BC20633660601D18F3736014013061D
:10388C0006C0C1826310C502B225DD9B03D8E500DA
:10389C00D18FD221ED9B93F6F6CFD18FD225336603
:1038AC000601D18E56A11AADFA215AB91EB18280E9
:1038BC001E3103D88500C207C18393F7F7EFC20707
:1038CC00C1831EB11E3156215A2DC2071396060113
:1038DC004207962141831377C7F8558FB621C183D0
:1038EC0093F7F7DFB3E60601A206D58FB736014092
:1038FC00C207938606C04182C183631FD502FD7641
:10390C009386F67FF58FB62503D8C500A206D58F12
:10391C00D621C207C183A20693F7F7BFD58FF576E0
:10392C00FD16F18EF225C207C1833366060112061D
:10393C00D18E13960601418252A15AADFA215ABD7D
:10394C001EB182801A31FD77FD17F98F1EB1035815
:10395C00050256215E2D657792211307F7CF7D8FD7
:10396C00F9772206FD17518FB3F70701B22103D85F
:10397C008500C2064207336606013206D18F373600
:10398C000140C207130606C0C1824183C183631A7A
:10399C00C50071767D16F18ED2251A06D18EC2061F
:1039AC00C18256A15AADFA212310E5041EB18280C2
:1039BC001E2189C593E717001EA18280C207C1830F
:1039CC00F99BC207C183CDBF5E2501C6DD8D4EA517
:1039DC00828093C5F5FFFD8DDDBF1E2189C593E760
:1039EC0007081EA18280C207C18393F7F7F7C207AD
:1039FC00C183C5BF1E2DC207C183DD9BDD8D0EADFE
:103A0C0082805E2DC207C183DD9BDD8D4EAD828031
:103A1C005A2DFD779387F77FF98FA205CD8FC207BB
:103A2C00C1835EAD82804EB982804EBD82802310F0
:103A3C00B50482801E294A25ED8F4205418189C734
:103A4C006D8D3335A00082800145828093C5F5FFD2
:103A5C00C205C1810EA982801629F577FD17F58F55
:103A6C00F621397122DC06DED58FDA251EA9562502
:103A7C00FD779387379FF58FD6212A842EC6D58F55
:103A8C009625D58FB625D58F5EA55E29C207C18335
:103A9C0093F7F7CFD98F5EA96808D134B7470140A7
:103AAC0093870780B245631FF402A2576547B3871B
:103ABC00E702984193064006F2500A07B3D7E70293
:103ACC0033D7D702B3F7D70212079207938727038E
:103ADC00B3D7D702BD8BD98FC207C1831EA4625442
:103AEC00216182809257D9B791C55E250967D98F1C
:103AFC005EA582805A25F977FD17F98FD5BF5E290F
:103B0C0001C6DD8D4EA9828093C5F5FFFD8DDDBF0D
:103B1C0093F5F51F4EA182800A216D8D3335A000DF
:103B2C00828093C5F5FFC205C1810EA18280938767
:103B3C0081859C4337177A0013070720B3D7E70218
:103B4C0093F7F70F238BF1881307803EB387E702B7
:103B5C00239AF1888280B7F700E0D8438146799B9D
:103B6C00D8C303C761893306A70290CBD4CB984343
:103B7C001367070198C398431367170298C3D84378
:103B8C00058B75DF9843799B98C38280B7F700E06B
:103B9C00D8438146799BD8C303D741893306A70202
:103BAC0090CBD4CB98431367070198C39843136702
:103BBC00170298C3D843058B75DF9843799B98C33C
:103BCC008280797122D42A8411658545110506D627
:103BDC007134930700207C82371501408D473EC419
:103BEC004C00E147130505803EC6EFF0CFDD22C83F
:103BFC0037440140B70708000C08130504803ECC7D
:103C0C0002CA231E0100893D130504808545E93D48
:103C1C00B250225445618280011126CAB74401403A
:103C2C0022CC4AC84EC606CEAE8932890144938452
:103C3C000480634A2401F24062444A85D2444249DA
:103C4C00B24905618280930500042685F13565DD56
:103C5C00B38789008385070026850504C205C181C9
:103C6C00453DC1BF938741809C43174700201307F4
:103C7C00E7E73E95636CE50017C700201307C7B74D
:103C8C006366A70023A2A1803E858280FD57EDBF0D
:103C9C00797126D206D622D44AD04ECE52CC03C845
:103CAC008500A144137808026310080683C8050038
:103CBC0009482E8481446399080503A84500AA8904
:103CCC00328A83471800034808003689A207B3E7F5
:103CDC000701C2070D68C18713082890638F07037B
:103CEC0081443A2497C7FF1F83D7A737631EF70079
:103CFC00938781899C4389CB0D473AC223162101B6
:103D0C0052C44C004E858297B250225426850259DB
:103D1C009254F249624A456182808547EFD0F06B3C
:103D2C00AA8461F19387818998435DDB83471A00EC
:103D3C0083460A004C00A207D58FB337F0008507E5
:103D4C003EC24E85029771BF0111179502001305F3
:103D5C00A59522CC2EC6328436C406CEEF70601ADE
:103D6C00B2458947A24690216314F602D8411C3310
:103D7C001823A207D98FC2070D67C1871307279095
:103D8C006398E700CC4592A222850946EFC0AFD4D8
:103D9C00F240624401450561828041677917630CEA
:103DAC00E502411122C406C685472A84639AF500B0
:103DBC0022852244B240938501AA41016FF0F01C88
:103DCC0089476396F5008545EF10B14975D1B2402E
:103DDC002244410182808280411126C2AA8441651D
:103DEC00938501AA7D1506C622C4EFF0101A17059B
:103DFC0000001305C5FAEF10913E97C6FF1F93867E
:103E0C00A6264146994517C5FF1F1305E51FEFF080
:103E1C00300D2A8419C5179502001305A589EF707A
:103E2C00400E2285B240224423AC91889244410139
:103E3C008280411122C42E84938501AA26C206C613
:103E4C00AA84EFD05054058905C197C7FF1F9387EB
:103E5C00A71BBE37A285B2401EA0224426859244E1
:103E6C00014641016FE0B024B240224492444945DE
:103E7C0041018280CC41411106C6328590318C21A2
:103E8C0022064D8E42068D654186138875A2630508
:103E9C00060F6347C804138845A26301060B634AE7
:103EAC00C800938535A26307B60623900600294601
:103EBC0051A0138855A26302060B938565A2E316E5
:103ECC00B6FEC1451D4663E7E5064546198E63F30C
:103EDC00C7003E8692A29795020093856580B9A093
:103EEC00138895A26308060D6347060B1388A5A2D9
:103EFC006301060F938505A5E319B6FA99451D468E
:103F0C0063EAE502198E63F3C7003E8692A293859D
:103F1C00018129A89D451D4663EEE5002146198EB9
:103F2C0063F3C7003E8692A29385018ABA95EFC0CF
:103F3C008FBA0146B240328541018280AD451D46A3
:103F4C00E3EAE5FE3146198E63F3C7003E8692A282
:103F5C00978502009385857CD1BFB1451D46E3EB67
:103F6C00E5FC3546198E63F3C7003E8692A2978511
:103F7C0002009385A57B5DBFC1451D46E3ECE5FAC8
:103F8C004546198E63F3C7003E8692A297850200C0
:103F9C009385457661BFC1451D46E3EDE5F8454681
:103FAC00198E63F3C7003E8692A297850200938513
:103FBC00E578ADBFC1451D46E3EEE5F64546198EE5
:103FCC0063F3C7003E8692A2978502009385C57362
:103FDC00B1BFB5451D46E3EFE5F43946198E63F3E1
:103FEC00C7003E8692A2978502009385656E3DBF01
:103FFC0097C6FF1F9386061B4146CD4517C5FF1F6D
:10400C00130545076FF0C06D0145828009C523A8D3
:10401C00A18A0145828045458280411106C62E87C2
:10402C00B28509C985476302F5028947B2403E85CE
:10403C00410182808546E147E31AD7FE0546138588
:10404C00818AEFC04FA98147D5B7E147E310A7FE9E
:10405C0005461385C18AF5B741119397050122C412
:10406C0006C6C1872E8463DD0700EFC06F9C19C1A3
:10407C00EF70D07B2165218DB240224441018280BA
:10408C0093F7150013C51500E5FB9397250163DF26
:10409C000700EF00420837F60200130606E08965B8
:1040AC0003C5818BEF80C03D0965F1B7939715016E
:1040BC000145E3D307FC1785020013056569EF6022
:1040CC00506413060064916503C5818BEF80403BFF
:1040DC00116555B7411117050000130525F806C6E3
:1040EC0022C4EF80007D1384818B08A02128082036
:1040FC002244B24037F60200130606E089654101FE
:10410C006F800038011185453705001806CE22CC8A
:10411C0002C002C202C402C6EFF02FD60545EFF072
:10412C00AFB10545EFF06FBE014413051004EFF07D
:10413C008FD82DC99307900F63F88700178502005D
:10414C0013054561EF60F05B13050010EFF06FBED7
:10415C000545EFF0CFBEEFF00FE6EFF0CFE50545EC
:10416C00EFF00FE3EFF02FE50145EFF02FE0EFF06C
:10417C008FE4FD573EC2B74764003EC40A8597F7EB
:10418C00FFFF938747593EC0EF80F013AA8519C5EE
:10419C00178502001305055DEF607045F24062441F
:1041AC00056182800504420429454180C532B5BFB2
:1041BC0085473705020023AEF18AEFF02F800945C1
:1041CC00EFF0AFE1EFF02FDF73002030411122C48C
:1041DC0006C61384818C01E91C4005479AABB2409A
:1041EC002244410182809387018D9C439C4382979A
:1041FC0008402905EDB7411122C406C61384818CF1
:10420C0001E91C4005479AABB2402244410182802F
:10421C009387018D9C439C47829708403105EDB7ED
:10422C009387818C984301E589471EAB828023924A
:10423C00018C1C2393F7F7079DEF18379377070230
:10424C0081C789472382F18C1377070483C7418C7C
:10425C000DC393E717002382F18C9387018D9C4348
:10426C00411106C69C4B8297B2401385418C41018B
:10427C008280F99BCDB785461385418C638FD7021D
:10428C0089460145639BD7025833B7660040938635
:10429C0006C09377F7008A07B69762079C4361873D
:1042AC006359070093F707034147E398E7FA8547FB
:1042BC005DB70D67F98F0567CDBF828001119387BC
:1042CC00818C26CA844322CC4EC6822806CE4AC88C
:1042DC0052C4BE8929EC98249147631AF70483C70A
:1042EC00018CA9C3B767004083A707C537370020E7
:1042FC000907C207C183BA97860723A00700930753
:10430C000003239CF18C11492380018C83A70900A5
:10431C0023842701F2406244D2444249B249224AE2
:10432C0005618280C147239CF18C1D49C5B7DE28ED
:10433C00114963F38700094963F387003E849C4C61
:10434C0042044180228582972A8A0145EF00F05869
:10435C002286AA855285EF005036A2850145EF00D2
:10436C00705B9E28818F9EA8BE283E949307000305
:10437C00239CF18C8D67A2A8239BF18C41BF938762
:10438C00818C9C4383C6D1820945B83363E2E60233
:10439C00B42399EED62389EE411106C6B8A79387AC
:1043AC00018D9C43DC438297B240014541018280E0
:1043BC008280011122CC1387C18C1384818C1C4008
:1043CC00184306CEAC33184FC83302971C40B8279D
:1043DC0015C72AC605E5D82315E3BC2385E39387C7
:1043EC00018D9C43DC4782971C403245D833B8B7CB
:1043FC00B833D8A7F2406244056182800945DDBF1D
:10440C009387818C9C43942393F6F60781EA983723
:10441C001377F7FD98B701473A858280094609471B
:10442C00E39CC6FEB623EDFAD423FDF6D03341113E
:10443C00376700401375F6F722C4130707C013142F
:10444C0025003A946206144006C626C26186635A59
:10445C00060493F6060383C5C1820947637DB50242
:10446C009DCABC278DCB1C406350060493F70703F1
:10447C004147639CE7001374F50F2285EF00D03E93
:10448C00930500032285EF00702A9387018D9C43CE
:10449C00DC4B82970147B240224492443A85410159
:1044AC0082800D67F98E45BFC164FD140D67E58FE1
:1044BC00F98F0567E39BE7FC1DED97C5FF1F83C5CF
:1044CC00E5D6EF0010471C4071771307F7F8F98F0A
:1044DC00C2070D67C183B98F617713070708D98F9E
:1044EC00C207C1831CC08D661840658F758FE30EA3
:1044FC00D7F81CC0D5BFEF00F0331C407177130701
:10450C00F7F8F98FC2070D67C183B98F617713076D
:10451C000708D98FC207C1831CC08D661840658FF0
:10452C00758FE304D7F61CC0D5BF9387818C90435D
:10453C00B7670040938707C0543293F5F6F713978B
:10454C002500BA97E2069843E18663D106061377F5
:10455C00070303C8C182094563F905092E22D1E579
:10456C0049C7382659C34111984306C663D506047A
:10457C00E5769386F6FB758F42074183E176134708
:10458C00070193860608558F4207418398C341461D
:10459C00944393F60603639EC6009387018D9C4358
:1045AC009C4F8297B2400145410182800D65698F15
:1045BC004DB798C3F1BFF1769386F6F8758F420725
:1045CC0085664183358FE17693860608558F4207C1
:1045DC004183416698C37D160D6585659443F18EC4
:1045EC00E98EE38CB6FA98C3D5BF82809387818C11
:1045FC009843411106C61C3793E707021CB79387F3
:10460C00018D9C43DC4F8297B24001454101828071
:10461C009387818C98433E2B11E5CA211D8D0AABE3
:10462C000145828088413E9582804111014597C5A4
:10463C00FF1F83C5A5BF06C6EF00B02F9387818CE3
:10464C009C438827A1476318F5008567239BF18C51
:10465C00C147239CF18CB2405D1513351500410107
:10466C008280011126CA9384818C4AC803A9040054
:10467C0006CE22CC3766004083468900832706C5C8
:10468C0025476384E60441641307F4FFB736002022
:10469C00F98F9106B69786078043798C060432947D
:1046AC001C202300F9001C30A300F9004A20EF0065
:1046BC0090322311A9000A2403A90400EF00B031A1
:1046CC002312A9005A249C40FAA39C40054798A7A2
:1046DC00FA238033631C070C98231377F7074DE7F5
:1046EC0025476315E400613935E13DA01547631892
:1046FC00E40403873700635B0700A14798401CA7BD
:10470C006244F240D2444249056105B7B82375F7BB
:10471C00DA2365F7BC27F5F3B767004083A707C515
:10472C00373700200907C207C183BA97860723A031
:10473C00070093070003239CF18C9947C1B70D47E1
:10474C006316E402B4330547638EE6009387C18C8D
:10475C009C432285DC4B82970D47A547E300E5FA85
:10476C0045DD61BFDE23FDF35135BDBF0547E31FBA
:10477C00E4FCB833E31C87FCDA2369FB9C3793F722
:10478C000702E9D7B5398DB785476317F700AD47F1
:10479C00E31EF4FA393989BF8946E319D7FAE303E2
:1047AC00F4FE8D47E314F4FA49333DBF1947631AFD
:1047BC00E40298231377F70769EBBC231387C18CAA
:1047CC00854618436395D7005C4FE1C389A08946A1
:1047DC006394D7001C53D5BF8D466398D70A5C539E
:1047EC00EDB769E4BA2355E3D843C1769386F60F47
:1047FC00758FB7060200631AD70898231377F7074B
:10480C0015EBDE23D9E3970700009387A7A1984007
:10481C000145231907001CCF829701459C40C166B6
:10482C00FD169A2B630ED70689466303D50069EFF4
:10483C00214785A88546631ED7001387C18C184372
:10484C00C8338145184F029729E19C40BC27C5FF0E
:10485C002DA88946631BD702D833B76600409386D0
:10486C0006C01376F70093172600B6979C43931651
:10487C008701E18663D9060293F7070383C6C182D9
:10488C006375D6001377070779D39387C18C98404B
:10489C009C4308339C4B82978D47E311F5F89C4061
:1048AC00254798A7B1BD8D66F58FC9BF2147631BFE
:1048BC00E4009C2393F7F707E9FB97070000938725
:1048CC002791B1B72947E312E4FC98238546137767
:1048DC00F707E31CD7FAB8274DDBBA235DF7D843AB
:1048EC00C1769386F60F758FC166E310D7FA1387DE
:1048FC00C18C1843C8338145184F029759F5970757
:10490C0000009387878F21B78386070063D3060443
:10491C009386C18C9442EE2303C6C6022EC6324542
:10492C0093160601C1826378E50032479AABD6AB89
:10493C00EFF0DF98F1B3E37CB7FE6375D70023800B
:10494C00018CF5B73367C7027DF305472380E18CF3
:10495C00F9BF0D4798A78D67239BF18C55B30111B7
:10496C004AC81389818C22CC0324090026CA06CE9E
:10497C004EC61C24A1441387E7FF1377D70F25C716
:10498C001387D7FF1377D70F45E31C4C85CB06282D
:10499C00B1C05A2863739700BA84C204C1802685BB
:1049AC0082971E28AA890145858F1EA83E28A697A6
:1049BC003EA89127AA8526864E8515231E2899CBBD
:1049CC008D6781450145239BF18CA9279307000333
:1049DC00239CF18C1E2856280327090063EFD7006F
:1049EC008D471CA704278327090084A76244F24043
:1049FC00D2444249B24905610DB999C39547D5B71F
:104A0C0099471CA7B767004083A707C5B736002096
:104A1C008906C207C183B697860723A007009307B0
:104A2C000003239CF18C7DBF1D47A144E39DE7FA55
:104A3C009387C18C9C43DC47829775B737660040DF
:104A4C00C1650568A16803C3C1820147130606C08E
:104A5C00FD151308F8F0938808086369670013655F
:104A6C000508B767004023A6A7C4828093162700C9
:104A7C00B2969C42ED8FB3F70701D98FB3E71701BC
:104A8C009CC20507D9BF411122C41384818C1C40E0
:104A9C0006C694271387E6FF1377D70F19EBEFF0B1
:104AAC00FF811C4098271C4098A72244B24041012A
:104ABC00ADBE19462147E398C6FE94331547639D56
:104ACC00E60098231377F70701EBA833853F93870C
:104ADC00018D9C439C5382979387C18C9C439C472C
:104AEC0082972147C9B78280938701AB23A4F18CAD
:104AFC00094798A797B7FF1F9387877023A6F18C58
:104B0C0003A3070017B7FF1F1307877423A8E18CB3
:104B1C00028339714AD84ED656D2B7690040A56A7D
:104B2C00617922DC52D45AD006DE26DA5ECE231707
:104B3C000100138A818E138409C0138BFAF01309B8
:104B4C00090883A749C42394F18E13970701635472
:104B5C00071483570A00BD8B2383F18C639C072EAB
:104B6C001C40B1669386F6F8239BF18C83D7618D3C
:104B7C0093F70703239CF18C83D7618D0D67F98F15
:104B8C00239BF18C18409387FAFB21667D8F1C4088
:104B9C001347070213060608F58F8966B58F93161F
:104BAC0007015D8F518FC18218C033E72601420780
:104BBC009384618D130600024183144093F606031F
:104BCC006396C60EB3E72701C166C207FD168D6555
:104BDC000966C1831840758F6D8F631BC70C835793
:104BEC000A00C18BF1EF1C4025691307F9F0F98F0E
:104BFC001CC0513D18401440B1679387F7F8F58FEE
:104C0C0096201309F9FB3377270113963601635469
:104C1C0006008566B58F9620139626016354060010
:104C2C008966B58F83D6818DC18A9385818D99C212
:104C3C0013470701962193F6060299C21347070200
:104C4C00216693160701130606085D8F518F376690
:104C5C0000402320E6C06177C18213070708558FF7
:104C6C0042074183832606C08A2193F60603639389
:104C7C00A604617713070708D98FC166C207376688
:104C8C000040FD160D65C183032706C08E20758F6D
:104C9C00698F6314B702F2506254D2544259B2591C
:104CAC00225A925A025BF24B2161828018C031B7B2
:104CBC001CC00DB72320E6C075B72320F6C0E9B79A
:104CCC001C40856BC207C1837C873C8713974701C7
:104CDC006350070C1C401387FBF8F98F1CC0EFF0D6
:104CEC005F981840A5679387F7FB14407D8FB167D9
:104CFC009387F7F8F58F96201396360163540600C8
:104D0C00B3C7770196201396260163540600896673
:104D1C00B58F83D6818DC18A9385818D99C21347B6
:104D2C000701962193F6060299C2134707022166E2
:104D3C0093160701130606085D8F518F37660040E6
:104D4C002320E6C06177C18213070708558F4207FD
:104D5C004183832606C08A2193F606036397A60235
:104D6C00617713070708D98FC166C2073766004001
:104D7C00FD160D65C183032706C08E20758F698FC4
:104D8C00E30BB7F02320F6C0FDB72320E6C0D1B764
:104D9C003C87C207C187E3D607DA1C401387FBF8B0
:104DAC00F98F1CC06D3E1840A5679387F7FB144024
:104DBC007D8FB1679387F7F8F58F962013963601A0
:104DCC0063540600B3C777019620139626016354EB
:104DDC0006008966B58F83D6818DC18A9385818DB6
:104DEC0099C213470701962193F6060299C21347FD
:104DFC000702216693160701130606085D8F518F73
:104E0C00376600402320E6C06177C182130707088C
:104E1C00558F42074183832606C08A2193F60603E9
:104E2C006397A602617713070708D98FC166C2077B
:104E3C0037660040FD160D65C183032706C08E2022
:104E4C00758F698FE309B7E42320F6C0FDB72320E3
:104E5C00E6C0D1B71397270022971443C206C1822C
:104E6C0074873487C206C18663D106021443056673
:104E7C001306F6F8F18EFD1714C38A0717B7FF1F38
:104E8C0013074736BA979C4382973C8793F70708DA
:104E9C00E38907CA83C7618C1397270022971443B1
:104EAC00FD178A07B3F6660114C317B7FF1F130764
:104EBC00A731BA979C43829769B1B7370020050692
:104ECC00BE950586860511E282801C31182191055C
:104EDC00A207D98F239EF5FE09057D16EDB7B737CE
:104EEC0000200506BE950586860511E282809C4150
:104EFC0009057D16231FF5FE9105C5BF6199420575
:104F0C004181B767004023A8A7C48280B7670040DF
:104F1C00938707C00A053E951C4165771307F798E0
:104F2C00F98FDD8DC205C1810CC18280B76700404D
:104F3C00938707C00A053E951C4165771307F7FB5D
:104F4C00F98FC20713F70501C18319C393C7070172
:104F5C0013F7050219C393C70702617713070708F4
:104F6C00D98FC207C1831CC1184113770703E31CF7
:104F7C00B7FE8280B7670040938707C00A053E954D
:104F8C001C4171771307F7F8F98FC2071397350196
:104F9C00C183635407000567B98F139725016354C8
:104FAC0007000967B98F617713070708D98FC20704
:104FBC00C183C1661CC1FD160D661841758F718FBA
:104FCC006313B70082801CC1CDBFB76700409387C5
:104FDC0007C00A053E951C4171771307F7F8F98F46
:104FEC00C2070D67C183B98F617713070708D98F83
:104FFC00C207C183C1661CC1FD160D661841758FB1
:10500C00718F6313C70082801CC1CDBFB76700408E
:10501C00938707C00A053E951C4105671307F7E007
:10502C00F98F617713070708D98FC207C1831CC199
:10503C008280E9BFB7670040938707C00A053E9599
:10504C001441C1671387F7FF9397160163DD0700BF
:10505C001C41F98F05671307F7F0F98F31671307B8
:10506C000708D98F1CC18280B7670040938707C09F
:10507C000A053E951C4193F7070491CF1C414167EB
:10508C007D17F98F05671307F7F0F98F2167130761
:10509C00070CD98F1CC18280B767004083A707C556
:1050AC000E058581C207C1833E95B73700203E951A
:1050BC00060586050CC18280B767004083A707C52B
:1050CC000E058581C207C1833E95B7370020910735
:1050DC003E95060586050CC18280B767004083A704
:1050EC0007C50E05C207C1833E95B73700203E9514
:1050FC0006050A218280B767004083A707C50E0505
:10510C00C207C1833E95B737002091073E9506052F
:10511C000A218280B767004083A707C50E05C20726
:10512C00C1833E95B737002089073E9506050CC113
:10513C008280B767004083A707C513173500C207E5
:10514C00C183BA97373700201907BA971307E003C2
:10515C0086076373B70413D75500FD8981E57D1766
:10516C00420741832A07A166558F98C30DE597B76F
:10517C00FF1F83C7A70B1307E0036376F70213D750
:10518C005700FD8B81E77D17420741832A07E177A2
:10519C005D8F239EE18C828013D71500858991C188
:1051AC0005072A07D9B713D71700858B91C30507B5
:1051BC002A07C5B7B767004083A707C50E05C20706
:1051CC00C1833E95B737002099073E9506050841E7
:1051DC001375F53F8280935785001375F50F2205E3
:1051EC005D8D828037670040F177232207C4938757
:1051FC0007F0239AF18CB167938707F02320F7C44B
:10520C0001458280411122C426C232849374F50771
:10521C002685420406C64AC041802E897D3D2286E1
:10522C00AA854A8559392685A285ED35B240224496
:10523C009244024901454101828037050400EFD0B8
:10524C00FFF773002030E924730020307971680077
:10525C0006D602C602C802CA02CC02CEEFE02FB0BC
:10526C00B24737479508130707400945638CE70297
:10527C0037E7B8051307078005456385E7023777DD
:10528C00DC02130707C00145638EE70037274E0E7B
:10529C00130707C0639AE700EFE0CFC48547631597
:1052AC00F5000D45EFE0AFA3854537058000EFE035
:1052BC00CFBCB250456182804111177502001305B5
:1052CC00E54B06C6EF50F043B2408D4723AAF18E52
:1052DC00410182804111177502001305E54B06C68A
:1052EC00EF50304283C7A1AB99C79547B24023AA70
:1052FC00F18E410182808547D5BF79713705040055
:10530C0006D622D4EFD09FEBB70704003EC8054465
:10531C00C14708083ECC22CE02CAEFD0DFE193078A
:10532C00401228007C8422C623050100EFE06F8B1D
:10533C009307A00328007C84EFE0AF8AB25022547C
:10534C0045618280411122C426C22E84AA848545DF
:10535C00114506C6EFE08FB0ADC0B766004083A71D
:10536C0006C441677517F98F23A0F6C4B71701401F
:10537C0003A74780B716F0FFFD16758F23A2E780B1
:10538C0003A7C780F9769386F67F758F23A6E780EF
:10539C0003A74780B7460400558F23A2E780374701
:1053AC0002408327078039C893E72700B240224484
:1053BC002320F78092444101828037670040832785
:1053CC0007C4B716F0FFFD1693E72700C207C18389
:1053DC002320F7C4B717014003A74780758F23A27A
:1053EC00E78003A7C780F9769386F67F758F23A68F
:1053FC00E78003A74780B736030079BFF59B7DB7DD
:10540C0082804111094506C622C426C2653383C475
:10541C00416F83C7516F2A84A2070945DD8CE1399E
:10542C00AA859A041385C12E228626954D3C83C6E7
:10543C00416F03C7516F2207558F9387C16E9376C7
:10544C00F40F060721803E9742047027418074A711
:10545C00743760B7942798372207558F0507942720
:10546C0042074183238AE16E94372183A38AE16E3C
:10547C00942798372207558FBD4663F8E600982786
:10548C00238A016E9837A38A016ED427D837220756
:10549C00558F0507D42742074183238CE16ED437FF
:1054AC002183A38CE16ED827DC37A207D98F35472F
:1054BC00637AF700B24022448547A382F17292448A
:1054CC00410182802244B240924409454101F5BC1D
:1054DC00238D018C238001728280411106C622C467
:1054EC008D476315F50203C4A18D0DE0130530083B
:1054FC00113B8547930500030D45238DF18CEFF08F
:10550C00FFA22285B2402244410182800544D5BFCE
:10551C0037680040032708C5C1651385F5FFB73709
:10552C000020698F1386670032970607184379713C
:10553C00938505C006D622D426D283D6C18DF98D8B
:10554C00638CD500832708C593F606C0E98FB29704
:10555C0086079843D98E94C3B766004083A746C488
:10556C001384818E2394F18E03D7818E83D7418D42
:10557C007D8F1377072019CB41671307F7DF23A221
:10558C00E6C403C7E18D0507238FE18C1A20F98F40
:10559C00C207C18763D40700EFF0AFD79384418D66
:1055AC001E209A20F98F93F7074091CFC1679387FC
:1055BC00F7BF376700402322F7C497B7FF1F9387C5
:1055CC0027C4DC4382971A2083D7418D7D8F931695
:1055DC00270163D806003967B76600407D1723A200
:1055EC00E6C41A20F98F13973701635A0700BD6779
:1055FC0037670040FD172322F7C40145DD2B9A20A5
:10560C001E20F98F13974701635E070083C7E18261
:10561C0063800710F529BD67376700409387F77FD4
:10562C002322F7C41E209A20F98F93F70710638466
:10563C00070EC167376700409386F7EF2322D7C464
:10564C00832687C413960601635C060A1386018EB3
:10565C001442850623A0D18E10428D4663F4C60AEF
:10566C00832607C4FD17A18AD1EE032707C437662A
:10567C000040130806C07D8F23A2E18E214501470F
:10568C0093162700B38506018C410010A296FD8D60
:10569C0023A0B6FE0507E315A7FE1387418E14431E
:1056AC0093E6160023A2D18E1443FD8E2320D6C47C
:1056BC001443F99A23A2D18E1843F98F2320F6C4F0
:1056CC0037670040832747C493F70740E5DFC1677E
:1056DC009387F7BFB765004041662322F7C49385D3
:1056EC0005C081477D162145139727001410BA96E3
:1056FC0083A606FE2E978507F18E14C3E396A7FEAC
:10570C0023A0018E2254B25092541D454561D5A15F
:10571C000945C52109B7B250225492544561828083
:10572C0083C7A1AB81C7954723AAF18E828091478D
:10573C0023AAF18E8280828091E5854733B5A7003C
:10574C00060582800945828019E59387818C9C43EC
:10575C001D479AAB8280138561728280F5B793875F
:10576C00818C9C4393061002094598231377F70705
:10577C00631DD70294336385E60213070002639618
:10578C00E602170700001307A7FD411106C698CFC4
:10579C002399070001450297B240014541018280DF
:1057AC0017070000130787FACDB782809387818C87
:1057BC0098439306100201451C3318231377F707FF
:1057CC00631AD7009387E7FD93F7F70F0545333539
:1057DC00F500060582809387818C9843930610020E
:1057EC001C2393F7F7076399D7001833930700022C
:1057FC006314F7006F00A07B82809387818C9C439D
:10580C00411106C623850700F92CB7670040856651
:10581C0037660040938707C09386F6F0930506C25F
:10582C0098439107758F23AEE7FEE39BB7FE930772
:10583C00F00F2322F6C4EFF0FF9A8145014523AA0D
:10584C00018E09365145EFE06FB4B24085450545F0
:10585C004101CDBC9387818C17770200130787F524
:10586C009C437833411106C698B723950700014530
:10587C00EFF0CFE8930500200145EFF02FE9C1458B
:10588C000145EFF0AFEA930500040145EFF0DF822C
:10589C00930500080145EFF03F800145EFF06FF9EB
:1058AC0097B5FF1F83C585980145EFF09F8801458B
:1058BC00EFF0AFF137670040032607C0C16793864E
:1058CC00F7FF9317160163DF0700832707C0F58FD7
:1058DC0085669386F6F0F58FB16693860608D58FAC
:1058EC002320F7C037670040832707C093F70704CE
:1058FC0085C3832707C0C166FD16F58F8566938621
:10590C00F6F0F58FA1669386060CD58F2320F7C091
:10591C00930500600545EFF06FDF93050002054528
:10592C00EFF0CFE09305000C0545EFF0EFF6814565
:10593C000545EFF02FE437670040832747C093F706
:10594C00070485C3832747C0C166FD16F58F85669E
:10595C009386F6F0F58FA1669386060CD58F2322DD
:10596C00F7C037670040032647C0C1679386F7FF2F
:10597C009317160163DF0700832747C0F58F8566F1
:10598C009386F6F0F58FB16693860608D58F2322A1
:10599C00F7C081450945EFF06FD781450945EFF018
:1059AC00EFD8930500100945EFF00FF193050004B3
:1059BC000945EFF00FF88D650945EFF0AFDB376760
:1059CC000040032687C0C1679386F7FF9317160123
:1059DC0063DF0700832787C0F58F85669386F6F013
:1059EC00F58FB16693860608D58F2324F7C03767E9
:1059FC000040832787C093F7070485C3832787C09C
:105A0C00C166FD16F58F85669386F6F0F58FA16657
:105A1C009386060CD58F2324F7C081450D45EFF0F6
:105A2C00EFCE930500020D45EFF04FD09305001417
:105A3C000D45EFF06FE681450D45EFF0AFD33767BD
:105A4C0000408327C7C093F7070485C38327C7C0CB
:105A5C00C166FD16F58F85669386F6F0F58FA16607
:105A6C009386060CD58F2326F7C037670040032694
:105A7C00C7C0C1679386F7FF9317160163DF070052
:105A8C008327C7C0F58F85669386F6F0F58FB166D0
:105A9C0093860608D58F2326F7C00145EFE01FFA41
:105AAC00B240238D018C854723AAF18E410182805F
:105ABC00938541826FE0DFB59385C1816FE05FB55F
:105ACC009387818C9C43AC33914763EAB7008E0576
